:100000000C9434000C9446000C9446000C9446006A
:100010000C9446000C9446000C9446000C94460048
:100020000C9446000C9446000C9446000C94460038
:100030000C9446000C9446000C9446000C94460028
:100040000C9446000C9446000C9446000C94460018
:100050000C9446000C9446000C9446000C94460008
:100060000C9446000C94460011241FBECFEFD8E03C
:10007000DEBFCDBF21E0A0E0B1E001C01D92A830FD
:10008000B207E1F70E94B3000C94E5000C94000065
:1000900088E0E0E0F1E0DF011D928A95E9F78FEF5B
:1000A00085B91BB80895FB01E050FF4F21E030E017
:1000B000082E01C0220F0A94EAF7452B21F0808117
:1000C000822B8083089520958081282320830895A2
:1000D000E0E0F1E080E090E041E050E0219125B9DE
:1000E0009A01082E01C0220F0A94EAF72BB9019653
:1000F0008830910599F708951092B9008CE08093AB
:10010000B80084E08093BC00089584EA8093BC002A
:100110008091BC0087FFFCCF089584E98093BC00E8
:1001200008958093BB0084E88093BC008091BC005C
:1001300087FFFCCF089584EC8093BC008091BC00C5
:1001400087FFFCCF8091BB00089584E88093BC00BA
:100150008091BC0087FFFCCF8091BB000895809107
:10016000B900887F08958FEF84B98AB90E9448004A
:100170008091000181608093000180910101826083
:10018000809301018091020184608093020180913B
:100190000301886080930301809104018061809352
:1001A0000401809105018062809305018091060120
:1001B0008064809306018091070180688093070125
:0E01C0000E947C000E946800FDCFF894FFCFE3
:00000001FF
